{
  "contractName": "DVideo",
  "abi": [
    {
      "inputs": [],
      "payable": false,
      "stateMutability": "nonpayable",
      "type": "constructor"
    },
    {
      "anonymous": false,
      "inputs": [
        {
          "indexed": false,
          "internalType": "uint256",
          "name": "id",
          "type": "uint256"
        },
        {
          "indexed": false,
          "internalType": "string",
          "name": "hash",
          "type": "string"
        },
        {
          "indexed": false,
          "internalType": "string",
          "name": "title",
          "type": "string"
        },
        {
          "indexed": false,
          "internalType": "address",
          "name": "author",
          "type": "address"
        }
      ],
      "name": "VideoUploaded",
      "type": "event"
    },
    {
      "constant": true,
      "inputs": [],
      "name": "name",
      "outputs": [
        {
          "internalType": "string",
          "name": "",
          "type": "string"
        }
      ],
      "payable": false,
      "stateMutability": "view",
      "type": "function"
    },
    {
      "constant": true,
      "inputs": [],
      "name": "videoCount",
      "outputs": [
        {
          "internalType": "uint256",
          "name": "",
          "type": "uint256"
        }
      ],
      "payable": false,
      "stateMutability": "view",
      "type": "function"
    },
    {
      "constant": true,
      "inputs": [
        {
          "internalType": "uint256",
          "name": "",
          "type": "uint256"
        }
      ],
      "name": "videos",
      "outputs": [
        {
          "internalType": "uint256",
          "name": "id",
          "type": "uint256"
        },
        {
          "internalType": "string",
          "name": "hash",
          "type": "string"
        },
        {
          "internalType": "string",
          "name": "title",
          "type": "string"
        },
        {
          "internalType": "address",
          "name": "author",
          "type": "address"
        }
      ],
      "payable": false,
      "stateMutability": "view",
      "type": "function"
    },
    {
      "constant": false,
      "inputs": [
        {
          "internalType": "string",
          "name": "_videoHash",
          "type": "string"
        },
        {
          "internalType": "string",
          "name": "_title",
          "type": "string"
        }
      ],
      "name": "uploadVideo",
      "outputs": [],
      "payable": false,
      "stateMutability": "nonpayable",
      "type": "function"
    }
  ],
  "bytecode": "0x6080604052600080556040518060400160405280600681526020017f44566964656f000000000000000000000000000000000000000000000000000081525060019080519060200190610053929190610066565b5034801561006057600080fd5b5061010b565b828054600181600116156101000203166002900490600052602060002090601f016020900481019282601f106100a757805160ff19168380011785556100d5565b828001600101855582156100d5579182015b828111156100d45782518255916020019190600101906100b9565b5b5090506100e291906100e6565b5090565b61010891905b808211156101045760008160009055506001016100ec565b5090565b90565b610a8e8061011a6000396000f3fe608060405234801561001057600080fd5b506004361061004c5760003560e01c806306fdde03146100515780638a5447c5146100d4578063c61b5f4c14610226578063e6821bf514610244575b600080fd5b610059610391565b6040518080602001828103825283818151815260200191508051906020019080838360005b8381101561009957808201518184015260208101905061007e565b50505050905090810190601f1680156100c65780820380516001836020036101000a031916815260200191505b509250505060405180910390f35b610224600480360360408110156100ea57600080fd5b810190808035906020019064010000000081111561010757600080fd5b82018360208201111561011957600080fd5b8035906020019184600183028401116401000000008311171561013b57600080fd5b91908080601f016020809104026020016040519081016040528093929190818152602001838380828437600081840152601f19601f8201169050808301925050505050505091929192908035906020019064010000000081111561019e57600080fd5b8201836020820111156101b057600080fd5b803590602001918460018302840111640100000000831117156101d257600080fd5b91908080601f016020809104026020016040519081016040528093929190818152602001838380828437600081840152601f19601f82011690508083019250505050505050919291929050505061042f565b005b61022e6107a0565b6040518082815260200191505060405180910390f35b6102706004803603602081101561025a57600080fd5b81019080803590602001909291905050506107a6565b6040518085815260200180602001806020018473ffffffffffffffffffffffffffffffffffffffff1673ffffffffffffffffffffffffffffffffffffffff168152602001838103835286818151815260200191508051906020019080838360005b838110156102ec5780820151818401526020810190506102d1565b50505050905090810190601f1680156103195780820380516001836020036101000a031916815260200191505b50838103825285818151815260200191508051906020019080838360005b83811015610352578082015181840152602081019050610337565b50505050905090810190601f16801561037f5780820380516001836020036101000a031916815260200191505b50965050505050505060405180910390f35b60018054600181600116156101000203166002900480601f0160208091040260200160405190810160405280929190818152602001828054600181600116156101000203166002900480156104275780601f106103fc57610100808354040283529160200191610427565b820191906000526020600020905b81548152906001019060200180831161040a57829003601f168201915b505050505081565b6000825111610489576040517f08c379a00000000000000000000000000000000000000000000000000000000081526004018080602001828103825260218152602001806109cc6021913960400191505060405180910390fd5b60008151116104e3576040517f08c379a00000000000000000000000000000000000000000000000000000000081526004018080602001828103825260288152602001806109ed6028913960400191505060405180910390fd5b600073ffffffffffffffffffffffffffffffffffffffff163373ffffffffffffffffffffffffffffffffffffffff161415610569576040517f08c379a0000000000000000000000000000000000000000000000000000000008152600401808060200182810382526045815260200180610a156045913960600191505060405180910390fd5b6000808154809291906001019190505550604051806080016040528060005481526020018381526020018281526020013373ffffffffffffffffffffffffffffffffffffffff1681525060026000805481526020019081526020016000206000820151816000015560208201518160010190805190602001906105ed929190610926565b50604082015181600201908051906020019061060a929190610926565b5060608201518160030160006101000a81548173ffffffffffffffffffffffffffffffffffffffff021916908373ffffffffffffffffffffffffffffffffffffffff1602179055509050507f2c44b862f4b4e08a26a765f9499900759a9ec95360a6f174d53163bd5d367f676000548383336040518085815260200180602001806020018473ffffffffffffffffffffffffffffffffffffffff1673ffffffffffffffffffffffffffffffffffffffff168152602001838103835286818151815260200191508051906020019080838360005b838110156106f85780820151818401526020810190506106dd565b50505050905090810190601f1680156107255780820380516001836020036101000a031916815260200191505b50838103825285818151815260200191508051906020019080838360005b8381101561075e578082015181840152602081019050610743565b50505050905090810190601f16801561078b5780820380516001836020036101000a031916815260200191505b50965050505050505060405180910390a15050565b60005481565b6002602052806000526040600020600091509050806000015490806001018054600181600116156101000203166002900480601f0160208091040260200160405190810160405280929190818152602001828054600181600116156101000203166002900480156108585780601f1061082d57610100808354040283529160200191610858565b820191906000526020600020905b81548152906001019060200180831161083b57829003601f168201915b505050505090806002018054600181600116156101000203166002900480601f0160208091040260200160405190810160405280929190818152602001828054600181600116156101000203166002900480156108f65780601f106108cb576101008083540402835291602001916108f6565b820191906000526020600020905b8154815290600101906020018083116108d957829003601f168201915b5050505050908060030160009054906101000a900473ffffffffffffffffffffffffffffffffffffffff16905084565b828054600181600116156101000203166002900490600052602060002090601f016020900481019282601f1061096757805160ff1916838001178555610995565b82800160010185558215610995579182015b82811115610994578251825591602001919060010190610979565b5b5090506109a291906109a6565b5090565b6109c891905b808211156109c45760008160009055506001016109ac565b5090565b9056fe446562657320696e73657274617220656c20686173682064656c20766964656f2e446562657320696e73657274617220756e2074c3ad74756c6f207061726120656c20766964656f2e4c612064697265636369c3b36e206465206c6120706572736f6e6120717565207175696572652061c3b16164697220656c20766964656f206465626520657869737469722ea265627a7a723158208802351b46226253f9357151dee4204802e97a78ec52eb7623f75cf94b48515f64736f6c63430005100032",
  "source": "pragma solidity ^0.5.0;\r\n\r\ncontract DVideo {\r\n  // Variables\r\n  uint public videoCount = 0;\r\n  string public name = \"DVideo\";\r\n  mapping(uint => Video) public videos;\r\n\r\n  struct Video {\r\n    uint id;\r\n    string hash;\r\n    string title;\r\n    address author;\r\n  }\r\n\r\n\r\n  // Eventos\r\n  event VideoUploaded(uint id,\r\n    string hash,\r\n    string title,\r\n    address author\r\n  );\r\n\r\n  // Constructor\r\n  constructor() public {\r\n  }\r\n\r\n  // Funciones\r\n  /**\r\n   * @notice Función que permite subir videos.\r\n   * @param _videoHash Hash del video.\r\n   * @param _title Título del video.\r\n   */\r\n  function uploadVideo(string memory _videoHash, string memory _title) public {\r\n    require(bytes(_videoHash).length > 0, 'Debes insertar el hash del video.');\r\n    require(bytes(_title).length > 0, 'Debes insertar un título para el video.');\r\n    require(msg.sender != address(0), 'La dirección de la persona que quiere añadir el video debe existir.');\r\n\r\n    videoCount++;\r\n\r\n    videos[videoCount] = Video(videoCount, _videoHash, _title, msg.sender);\r\n\r\n    emit VideoUploaded(videoCount, _videoHash, _title, msg.sender);\r\n  }\r\n}\r\n",
  "sourcePath": "C:\\Users\\Blanko\\Documents\\Santi\\Programming\\Blockchain\\Formación\\blockchain-youtube\\src\\contracts\\DVideo.sol",
  "compiler": {
    "name": "solc",
    "version": "0.5.16+commit.9c3226ce.Emscripten.clang"
  },
  "schemaVersion": "3.4.2",
  "updatedAt": "2021-08-25T15:10:57.719Z",
  "networkType": "ethereum",
  "devdoc": {
    "methods": {
      "uploadVideo(string,string)": {
        "params": {
          "_title": "Título del video.",
          "_videoHash": "Hash del video."
        }
      }
    }
  },
  "userdoc": {
    "methods": {
      "uploadVideo(string,string)": {
        "notice": "Función que permite subir videos."
      }
    }
  }
}